:100000000C945D000C9485000C9485000C94850084
:100010000C9485000C9485000C9485000C9485004C
:100020000C9485000C9485000C9485000C9485003C
:100030000C9485000C9485000C9485000C9485002C
:100040000C9411010C9485000C9485000C9485008F
:100050000C9485000C9485000C9485000C9485000C
:100060000C9485000C94850000000008000201003B
:100070000003040700000000000000000000000072
:10008000250028002B0000000000240027002A0083
:10009000040404040404040402020202020203032E
:1000A0000303030301020408102040800102040836
:1000B00010200102040810208F0211241FBECFEF70
:1000C000D8E0DEBFCDBF11E0A0E0B1E0E8E4F5E0AC
:1000D00002C005900D92A83EB107D9F722E0A8EE24
:1000E000B1E001C01D92AD32B207E1F710E0CDE5FD
:1000F000D0E004C02197FE010E949C02CC35D107BC
:10010000C9F70E945B010C94A2020C94000090E0DD
:10011000FC01EC55FF4F249180579F4FFC018491C7
:10012000882399F090E0880F991FFC01EA57FF4F50
:10013000A591B491FC01E458FF4F859194918FB73C
:10014000F894EC91E22BEC938FBF089590E0FC01C2
:10015000E859FF4F2491FC01EC55FF4F3491FC010D
:10016000E057FF4FE491EE23C9F0222339F023300A
:1001700001F1A8F4213019F1223029F1F0E0EE0F5D
:10018000FF1FE458FF4FA591B4918FB7F894EC91FD
:10019000611126C030953E233C938FBF08952730D0
:1001A000A9F02830C9F0243049F7809180008F7D74
:1001B00003C0809180008F7780938000DFCF84B56B
:1001C0008F7784BDDBCF84B58F7DFBCF8091B0006E
:1001D0008F778093B000D2CF8091B0008F7DF9CF20
:1001E0003E2BDACF0F931F93CF93DF93082F162F59
:1001F000D42FC8E06D2F661F6627661F802F0E94D0
:10020000A600DD0F61E0812F0E94A60060E0812F33
:100210000E94A600C15071F7DF91CF911F910F91FD
:1002200008951F920F920FB60F9211242F933F93B0
:100230008F939F93AF93BF938091290290912A024D
:10024000A0912B02B0912C023091280223E0230FC1
:100250002D3758F50196A11DB11D209328028093DA
:10026000290290932A02A0932B02B0932C02809132
:10027000240290912502A0912602B09127020196B6
:10028000A11DB11D8093240290932502A093260204
:10029000B0932702BF91AF919F918F913F912F9182
:1002A0000F900FBE0F901F90189526E8230F02960F
:1002B000A11DB11DD2CF789484B5826084BD84B570
:1002C000816084BD85B5826085BD85B5816085BD51
:1002D00080916E00816080936E0010928100809109
:1002E0008100826080938100809181008160809391
:1002F0008100809180008160809380008091B100B6
:1003000084608093B1008091B00081608093B000E0
:1003100080917A00846080937A0080917A00826074
:1003200080937A0080917A00816080937A00809136
:100330007A00806880937A001092C10083E00E9466
:10034000870082E00E94870084E00E94870086E0A8
:100350000E94870085E00E94870087E00E94870056
:100360004091E8015091E9018AEE91E030E020E00F
:10037000421753073CF0FC01E20FF31F10822F5F7E
:100380003F4FF6CF079622E08232920779F7DBEAF9
:100390002D2ED4E03D2EC8ED8C2EC1E09C2E87EE94
:1003A000881681E0980609F4B2C0F401C1914F01AA
:1003B0000C2E000CDD0BC054D109D7FF02C0D0E0D9
:1003C000C0E0B3E0CC0FDD1FBA95E1F7C050DF4FBE
:1003D00010E000E08091220290912302FC0131970D
:1003E000F7FD3796A3E0F595E795AA95E1F7E65175
:1003F000FE4F27E030E0DF018C9105301105B9F5A3
:10040000816080832150310937962F3F3207A1F751
:10041000EEE1CE2ED12C7AEEA72E71E0B72EF12C84
:10042000E12C60E086E00E94A60041E050E00E2C46
:1004300001C0440F0A94EAF765E087E00E94F200E9
:1004400060E083E00E94A6006090E8017090E901FE
:10045000230157FC1AC0F501E40DF51D408162E04F
:1004600084E00E94F20091E0491A5108F2CF4881DD
:1004700050E0022E02C0559547950A94E2F7409548
:10048000509540FDBDCF8E7FBCCF61E083E00E94E0
:10049000A60061E086E00E94A600C1010197F1F785
:1004A000EFEFEE1AFE0AF7E0AF0EB11C28E0E216FD
:1004B000F10409F0B6CF81E0C81AD10809F0ABCF3A
:1004C0002AEE31E0F90150E040E0808190E095951E
:1004D00087958193461557053CF4608160FF04C001
:1004E000DF01119780688C934F5F5F4F4730510554
:1004F00061F7295F3F4F92E02232390719F70F5F0A
:100500001F4F21960630110509F064CF48CFE0E077
:10051000F0E0EF2B09F43FCF0E9400003CCF86E0D3
:1005200090E09093E9018093E80188E390E0909354
:100530002302809322020895EE0FFF1F0590F4918D
:08054000E02D0994F894FFCFAF
:1005480000000000000000001F2444241F000000D9
:100558007F494949360000003E41414122000000E0
:100568007F4141221C0000007F49494141000000B1
:100578007F484848400000003E41414526000000B1
:100588007F0808087F00000000417F41000000004C
:10059800020101017E0000007F08142241000000D2
:1005A8007F010101010000007F2010207F00000072
:1005B8007F2010087F0000003E4141413E000000BE
:1005C8007F484848300000003E4145423D00000059
:1005D8007F484C4A31000000324949492600000052
:1005E80040407F40400000007E0101017E00000085
:1005F8007C0201027C0000007E0106017E000000F2
:10060800631408146300000060100F1060000000FD
:1006180043454951610000002050534B2043524547
:080628004154494F4E532000DC
:00000001FF
